:020000040800F2
:10000000B804002045010008191200082D0A000854
:1000100015120008CB040008D535000800000000C8
:10002000000000000000000000000000A91500080A
:10003000CF04000800000000D9130008B91600081A
:100040005F0100085F0100085F0100085F01000810
:100050005F0100085F0100085F0100085F01000800
:100060005F0100085F0100085F0100085F010008F0
:100070005F0100085F0100085F0100085F010008E0
:100080005F0100085F0100085F0100085F010008D0
:100090005F0100085F0100085F0100085F010008C0
:1000A0005F0100085F0100085F0100085F010008B0
:1000B0005F0100085F0100085F0100085F010008A0
:1000C0005F0100085F0100085F0100085F01000890
:1000D0005F0100085F0100085F0100085F01000880
:1000E0005F0100085F0100085F0100085F01000870
:1000F0005F0100085F0100085F0100085F01000860
:100100005F0100085F0100085F0100085F0100084F
:100110005F0100085F010008A91B00087D1C0008A2
:100120005F0100085F0100085F0100085F0100082F
:10013000DFF80CD000F0A8F9004800475939000852
:10014000B80400200648804706480047FEE7FEE75F
:10015000FEE7FEE7FEE7FEE7FEE7FEE7FEE7FEE777
:10016000C116000831010008F0B480EA0102D40F82
:100170004200B2EB410F02D20246084611464A0045
:1001800042D0C30DDDB2C1F3C752AD1A202D35DA0E
:10019000C1F3160141F4000204B15242C5F1200638
:1001A00002FA06F12A411044B3EBD05F23D0C4B168
:1001B000012DA0EBC35009DCF0BC4FF0004202EA75
:1001C000C352DBB200F5000000F0D3B8400000F1EC
:1001D000807000EBC350A0F1807040EAD1704900FC
:1001E00009E0490841EAC071A0EBC35000F50000E6
:1001F000400800EBC350F0BC00F0B2B861420122ED
:1002000002EB4101001BF6E7F0BC704781F00041B2
:10021000AAE780F00040A7E780EA010210B502F0EB
:100220000043400022D04A001FD0010E01EB1261B2
:10023000C0F35600C2F3560240F4000042F400023C
:10024000A0FB022000047F39140400D0401C50EAB7
:10025000124001D44000491EC2B20C0604EBD0107B
:10026000401C4008802A02D003E0002010BD20F08E
:100270000100002900DA0020184310BDC10F80EAF8
:10028000E0700844CA079623002100F072B80EB54A
:10029000C10F80EAE0700844CA07002140F23343EE
:1002A0008DE80E000A460B4600F0A0F803B000BD32
:1002B00000F0004220F00040C10DC0F3160040F4F1
:1002C00000007F2901DA00207047962903DCC1F184
:1002D0009601C84001E096398840002AF4D0404297
:1002E0007047C1F30A5210B5C1F3130140F2FF3356
:1002F00041F480119A4201DA002010BD40F23343EC
:100300009A42A2F2334203DC524200F019F810BDC7
:10031000904010BD30B50B4601460020202201243C
:1003200009E021FA02F59D4205D303FA02F5491BC3
:1003300004FA02F52844151EA2F10102F1DC30BDD9
:10034000202A04DB203A21FA02F00021704721FA2A
:1003500002F3D040C2F12002914008431946704791
:100360000029A8BF7047401C490008BF20F00100C9
:10037000704710B4B0FA80FC00FA0CF050EA0104A7
:1003800004BF10BC704749B1CCF1200421FA04F439
:1003900011FA0CF118BF012121430843A3EB0C0112
:1003A000CB1D4FEA00614FEA102042BF002010BC75
:1003B000704700EBC35010440029A4BF10BC704725
:1003C000401C490008BF20F0010010BC704710B568
:1003D000141E73F1000408DA401C41F10001921868
:1003E0005B411A4301D120F0010010BD2DE9F04D11
:1003F00092469B4611B1B1FA81F202E0B0FA80F266
:100400002032904600F052F804460F4640EA0A00B7
:1004100041EA0B0153465A46084313D0114653EAAA
:10042000010019D0C8F140025046FFF789FF054688
:100430000E4650465946424600F038F8084305D06B
:10044000012004E020463946BDE8F08D0020054338
:1004500046EAE0762C4337430A986305E40AA0EBAA
:1004600008000022FD0A44EA47540A3002D5002061
:100470000146E9E7010510196941DDE90845001960
:100480006941BDE8F04DA2E7064C074D06E0E06883
:1004900040F0010394E8070098471034AC42F6D3CB
:1004A000FFF74AFEBC3A0008DC3A0008202A04DBC9
:1004B000203A00FA02F1002070479140C2F1200377
:1004C00020FA03F319439040704700BFFEE77047DE
:1004D00001B50849009808604FF0E020006940F03D
:1004E00001004FF0E021086100BF024800680028C9
:1004F000FBD108BD300000202DE9F05F05460C4619
:100500004FF00009CA4600260027B046B3465948B6
:10051000854211D0584885420ED0584885420BD0AC
:100520005748854208D05748854205D056488542ED
:1005300002D05648854200D103E0B22154A003F016
:1005400047F9E078A0B1E078042811D0E0782828B5
:100550000ED0E07848280BD0E078142808D0E07856
:10056000102805D0E0781C2802D0E078182800D1A7
:1005700003E0B32146A003F02BF9002010B9208836
:1005800000B103E0B42142A003F022F9E07800F0CA
:100590000F09E07800F0100080B1A078012805D0A4
:1005A000A078022802D0A078032800D103E0BB2164
:1005B00037A003F00DF9A07840EA0909207838B394
:1005C000D5F8008000261FE0012000FA06F72088F9
:1005D00000EA070ABA4516D1B7000F2000FA07FB58
:1005E00028EA0B0809FA07F040EA0808E07828280A
:1005F00003D10120B040686105E0E078482802D1CD
:100600000120B0402861761C082EDDD3C5F800809B
:100610002088FF282BDDD5F80480002623E006F192
:100620000800012101FA00F7208800EA070ABA450C
:1006300018D1B7000F2000FA07FB28EA0B0809FAC7
:1006400007F040EA0808E078282803D106F10800FE
:1006500081406961E078482804D106F10800012151
:1006600081402961761C082ED9D3C5F80480BDE8E5
:10067000F09F000000080140000C01400010014004
:100680000014014000180140001C014000200140FE
:100690002E2E5C2E2E5C4C69627261726965735CF1
:1006A00046576C69625C7372635C73746D33326657
:1006B0003130785F6770696F2E63000070B5054652
:1006C0000C4600262848854211D0284885420ED085
:1006D000274885420BD02748854208D026488542C6
:1006E00005D02648854202D02548854200D104E045
:1006F0004FF48F7123A003F06BF8012C25D0022C4E
:1007000023D0042C21D0082C1FD0102C1DD0202C3D
:100710001BD0402C19D0802C17D0B4F5807F14D07A
:10072000B4F5007F11D0B4F5806F0ED0B4F5006F32
:100730000BD0B4F5805F08D0B4F5005F05D0B4F5F8
:10074000804F02D0B4F5004F00D104E040F21F11F9
:100750000CA003F03DF8A868204008B1012600E095
:100760000026304670BD000000080140000C01402A
:10077000001001400014014000180140001C01401D
:10078000002001402E2E5C2E2E5C4C69627261723C
:100790006965735C46576C69625C7372635C737401
:1007A0006D3332663130785F6770696F2E63000099
:1007B00070B504460D461348844211D01248844255
:1007C0000ED0124884420BD01148844208D0114800
:1007D000844205D01048844202D01048844200D19F
:1007E00004E040F279110EA002F0F2FF002008B9F7
:1007F00005B104E04FF4BD7109A002F0E9FF6561A5
:1008000070BD000000080140000C014000100140D4
:100810000014014000180140001C0140002001406C
:100820002E2E5C2E2E5C4C69627261726965735C5F
:1008300046576C69625C7372635C73746D333266C5
:100840003130785F6770696F2E63000070B50446C1
:100850000D461348844211D0124884420ED01248EB
:1008600084420BD01148844208D01148844205D0FC
:100870001048844202D01048844200D104E040F283
:1008800069110EA002F0A4FF002008B905B104E030
:100890004FF4B57109A002F09BFF256170BD000007
:1008A00000080140000C014000100140001401400C
:1008B00000180140001C0140002001402E2E5C2E3B
:1008C0002E5C4C69627261726965735C46576C6933
:1008D000625C7372635C73746D3332663130785F5F
:1008E0006770696F2E63000070B504460D460E48B0
:1008F000844211D00D4884420ED00D4884420BD062
:100900000C48844208D00C48844205D00B488442ED
:1009100002D00B48844200D104E04FF4D27109A008
:1009200002F056FFE56070BD00080140000C014078
:10093000001001400014014000180140001C01405B
:10094000002001402E2E5C2E2E5C4C69627261727A
:100950006965735C46576C69625C7372635C73743F
:100960006D3332663130785F6770696F2E630000D7
:1009700010B5044601212C48FFF71AFF02212A482E
:10098000FFF716FF04212848FFF712FF0821264829
:10099000FFF70EFF10212448FFF70AFF202122480D
:1009A000FFF706FF40212048FFF702FF80211E4885
:1009B000FFF7FEFE04F0010018B101211A48FFF70D
:1009C00045FF04F0020018B102211748FFF73EFF6F
:1009D00004F0040018B104211348FFF737FF04F0B6
:1009E000080018B108211048FFF730FF04F010008C
:1009F00018B110210C48FFF729FF04F0200018B1AE
:100A000020210948FFF722FF04F0400018B14021DF
:100A10000548FFF71BFF04F0800018B18021024851
:100A2000FFF714FF10BD00000014014002E002A017
:100A300002F0D2FDFBE700000D0A456E74657220DE
:100A4000486172644661756C745F48616E646C6580
:100A5000722C2053797374656D2048616C742E0D6F
:100A60000A00000010B52F480089012859D1002044
:100A70002C49088108460088012806D0022818D091
:100A800003282AD004284AD138E02648007B0628CB
:100A90000CD2DFE800F00B030408090A07E000208D
:100AA00002F01CFF03E002E001E000E000BF00BF35
:100AB00036E01C48007B06280CD2DFE800F00B0370
:100AC0000408090A07E0012002F008FF03E002E041
:100AD00001E000E000BF00BF22E01248007B0628D2
:100AE00009D2DFE800F008030405060704E003E08C
:100AF00002E001E000E000BF00BF11E00948007B18
:100B0000062809D2DFE800F008030405060704E020
:100B100003E002E001E000E000BF00BF00E000BF32
:100B200000BF10BDA400002070B505460C46012191
:100B3000084600F0DBF910A20021084600F0B2F9E7
:100B4000284602F06BFF064632460021042000F0E2
:100B5000A9F90BA20021082000F0A4F9204602F018
:100B60005DFF0646324600210D2000F09BF9064845
:100B7000FFF7AEFC70BD00005365743A0000000042
:100B80005265616C3A000000400D030010B500F0A2
:100B900057F8044629484088A0422DD1002C49D05E
:100BA00026488088401C2549888008468088B0F502
:100BB000167F09DB4FF4FA70888008460480042011
:100BC00008730120088135E01C488088B0F5FA7F61
:100BD00007D11A48048003201849087301200881AE
:100BE00028E016488088052824D114480480012074
:100BF0001249087308811DE0CCB910488088B0F50F
:100C0000FA7F08DB0D4840880C49088005200873EE
:100C1000012008810BE009488088052807DB074888
:100C200040880649088002200873012008810020BE
:100C3000024988800148448010BD0000A4000020C3
:100C400010B5002401210E48FFF738FD08B944F023
:100C5000010402210A48FFF731FD08B944F00204FB
:100C600004210748FFF72AFD08B944F003040821CE
:100C70000348FFF723FD08B944F00404204610BDE3
:100C800000180140002004490880488008738880CB
:100C90000881C88048817047A400002008B5012160
:100CA000402000F0D9FB0F20ADF8000004208DF8A3
:100CB000030069460248FFF71FFCFFF7E3FF08BD8A
:100CC0000018014010B500F09FF840F2DC50FFF72B
:100CD000FFFB0021382000F009F94FF4FA70FFF70C
:100CE000F7FB0021382000F001F94FF4FA70FFF70C
:100CF000EFFB0021382000F0F9F80121382000F046
:100D0000F5F80121082000F0F1F80121084600F073
:100D1000EDF80121062000F0E9F801210C2000F097
:100D2000E5F810BD08B50121082000F095FB4FF44F
:100D30007070ADF8000010208DF8030002208DF8CF
:100D4000020069460448FFF7D7FB4FF47071024870
:100D5000FFF77CFD08BD0000000C014008B5012133
:100D6000202000F079FBFF20ADF8000048208DF82E
:100D7000030003208DF8020069461848FFF7BCFB0A
:100D80004FF480511648FFF713FD4FF400611448EB
:100D9000FFF75CFD4FF480611148FFF757FD00BF7E
:100DA00080210E48FFF78AFC0028F9D14FF48061BA
:100DB0000B48FFF7FDFC0121202000F04DFBFF2038
:100DC000ADF8000010208DF8030003208DF802001C
:100DD00069460248FFF790FB08BD0000001401407F
:100DE0000010014010B54FF480610648FFF72EFD5A
:100DF0000520FFF76DFB4FF480610248FFF7D8FC38
:100E000010BD00000010014008B50121202000F0B5
:100E100023FBFF20ADF8000010208DF80300032015
:100E20008DF8020069461D48FFF766FB012110207E
:100E300000F012FB4FF48060ADF8000010208DF838
:100E4000030003208DF8020069461548FFF754FBA4
:100E50000121102000F000FB4FF40060ADF800000D
:100E600010208DF8030003208DF8020069460C481D
:100E7000FFF742FB0121102000F0EEFA4FF4805002
:100E8000ADF8000010208DF8030003208DF802005B
:100E900069460348FFF730FB08BD0000001401401D
:100EA0000010014070B505460E46144631462846EE
:100EB00000F009F803E0207800F032F8641C207894
:100EC0000028F8D170BD70B506460C461CB906F175
:100ED0008000C5B204E0012C02D106F1C000C5B209
:100EE0000121284600F002F870BD000070B50546EB
:100EF0000C460CB1FFF732FF4FF480510748FFF763
:100F000057FC4FF400610548FFF752FC2846FFF7F5
:100F10002FFDFFF767FFFFF721FF70BD00100140B5
:100F200010B50446FFF71AFF4FF480510748FFF74A
:100F30008DFC4FF400610548FFF73AFC2046FFF7AF
:100F400017FDFFF74FFFFFF709FF10BD001001402D
:100F500010B500F081F830281EDB00F07DF839284C
:100F60001ADC00F079F830382649096801EB810174
:100F700000EB41002349086008460068B0F5167F81
:100F800002D34FF4167008601F48B0F90C101D48CA
:100F90000068FFF7C9FD33E000F05EF842281AD080
:100FA00006DC232823D02A2825D0412827D104E095
:100FB000432814D0442822D115E01248016813A018
:100FC00002F00AFB0F48008800B20F494881002058
:100FD0000C49086013E011A002F0FEFA0FE012A025
:100FE00002F0FAFA0BE013A002F0F6FA07E014A000
:100FF00002F0F2FA03E015A002F0EEFA00BF00BF23
:1010000010BD00002C0000203C0000207365745FC0
:101010005370656564203D2025640000B0B4CFC2E4
:10102000C1CB42BCFC000000B0B4CFC2C1CB43BCBA
:10103000FC000000B0B4CFC2C1CB44BCFC00000037
:10104000B0B4CFC2C1CB23BCFC000000B0B4CFC24F
:10105000C1CB2ABCFC00000010B55C4800684FF210
:10106000FF02104040F4706158480C38FFF73CFC18
:101070005648001F006800F4704008B9002010BDF9
:1010800041F28830FFF724FA5048001F006800F44E
:10109000704008B90020F2E74C4800684FF2FF02A8
:1010A000104040F4807149480C38FFF71DFC474858
:1010B000001F006800F47040B0F5805F09D0B0F503
:1010C000005F08D0B0F5804F07D0B0F5004F08D1D1
:1010D00005E0442405E0432403E0422401E04124E8
:1010E00000BF00BF394800684FF2FF02104040F4D3
:1010F000007136480C38FFF7F7FB3448001F0068D2
:1011000000F47040B0F5805F09D0B0F5005F08D002
:10111000B0F5804F07D0B0F5004F08D105E023248B
:1011200005E0392403E0362401E0332400BF00BF8A
:10113000264800684FF2FF02104040F480612348C7
:101140000C38FFF7D1FB2148001F006800F4704005
:10115000B0F5805F09D0B0F5005F08D0B0F5804FE2
:1011600007D0B0F5004F08D105E0302405E0382461
:1011700003E0352401E0322400BF00BF13480068BB
:101180004FF2FF02104040F4006110480C38FFF7A6
:10119000ABFB0E48001F006800F47040B0F5805FA4
:1011A00009D0B0F5005F08D0B0F5804F07D0B0F59A
:1011B000004F08D105E02A2405E0372403E0342459
:1011C00001E0312400BF00BF204658E70C18014061
:1011D00008B50121402000F03FF910208DF80300F0
:1011E00002208DF802004FF47060ADF800006946EF
:1011F0000748FFF781F928208DF803004FF470406D
:10120000ADF8000069460248FFF776F908BD000016
:101210000018014000BFFEE7704700002DE9F041D3
:101220000446002500270F26E07810B1E078012859
:1012300000D103E0752121A002F0CAFA60781028DD
:1012400000DA03E076211DA002F0C2FAA07810288F
:1012500000DA03E0772119A002F0BAFAE07800B3CF
:101260001F48006800F4E060C0F5E060050AC5F1C1
:101270000407EE40607800FA07F5A0783040054397
:101280002D01184822788554207800F01F01012094
:10129000884021784911890001F1E021C1F800015D
:1012A00009E0207800F01F01012088400E492278D3
:1012B000521141F82200BDE8F08100002E2E5C2E74
:1012C0002E5C4C69627261726965735C46576C6929
:1012D000625C7372635C6D6973632E63000000006F
:1012E0000CED00E000E400E080E100E010B5044611
:1012F000B4F5E06F0BD0B4F5C06F08D0B4F5A06FB3
:1013000005D0B4F5806F02D0B4F5407F00D103E082
:10131000632104A002F05CFA0B4820430B490860EB
:1013200010BD00002E2E5C2E2E5C4C696272617224
:101330006965735C46576C69625C7372635C6D6966
:1013400073632E63000000000000FA050CED00E05E
:101350002DE9F05F0446B4F90A10B4F90C20881A9C
:10136000FEF78CFF1A490860B4F90200FEF786FF09
:101370008246174801685046FEF74EFF074615485B
:10138000016813480068FEF741FF8246B4F9000087
:10139000FEF774FF83465146FEF73EFF804639460E
:1013A000FEF7E2FE0646B4F91800FEF767FF814635
:1013B0003146FEF7D9FE0546FEF77AFF00B22083DC
:1013C0000348006803490860B4F91800BDE8F09FBD
:1013D000780000207C0000207047000070B50446B3
:1013E0000D461048204008B904B104E040F26941BC
:1013F0000DA002F0EDF90DB1012D00D104E040F295
:101400006A4109A002F0E4F92DB11248C0692043F5
:101410001049C86104E00F48C069A0430D49C86184
:1014200070BD0000003601812E2E5C2E2E5C4C69B2
:10143000627261726965735C46576C69625C737253
:10144000635C73746D3332663130785F7263632E20
:10145000630000000010024070B504460D461048BD
:10146000204008B904B104E040F24A410DA002F066
:10147000AFF90DB1012D00D104E040F24B4109A0BC
:1014800002F0A6F92DB11248806920431049886105
:1014900004E00F488069A0430D49886170BD0000D9
:1014A0000200C0FF2E2E5C2E2E5C4C6962726172AF
:1014B0006965735C46576C69625C7372635C7374D4
:1014C0006D3332663130785F7263632E63000000E3
:1014D0000010024030B500210022002400232D4DD1
:1014E0006D6805F00C0121B1042905D0082923D12C
:1014F00005E0294D056022E0274D05601FE0254DE0
:101500006D6805F47012234D6D6805F48034022572
:1015100005EB92421CB9214D554305600BE01D4D72
:101520006D6805F400351DB11C4D5543056002E0A2
:10153000194D5543056002E0174D056000BF00BF1F
:10154000144D6D6805F0F0010909154D6B5C0568D7
:10155000DD4045600F4D6D6805F4E061090A104DEE
:101560006B5C4568DD4085600A4D6D6805F460512F
:10157000C90A0B4D6B5C4568DD40C560054D6D6863
:1015800005F44041890B074D6B5CC568B5FBF3F56D
:10159000056130BD0010024000127A0000093D00D4
:1015A0001400002024000020704710B54FF0E02008
:1015B000006940F001004FF0E02108614FF44070F5
:1015C000FFF794FE00F01CFB00F068FB10BD10B5A7
:1015D00000F002F810BD00000CB500200190009052
:1015E0003348006840F480303149086000BF30481B
:1015F000006800F4003000900198401C01900098B1
:1016000018B90198B0F5A06FF1D12948006800F42D
:10161000003010B10120009001E0002000900098FF
:10162000012843D12348006840F010002149086098
:101630000846006820F0030008600846006840F093
:10164000020008601A484068194948600846406826
:1016500048600846406840F480604860084640683A
:1016600020F47C1048600846406840F4E810486068
:101670000846006840F08070086000BF0C480068B1
:1016800000F000700028F9D00948406820F00300FD
:10169000074948600846406840F00200486000BFC3
:1016A0000348406800F00C000828F9D10CBD000088
:1016B000001002400020024010B501F037FD10BDBF
:1016C00010B51348006840F0010011490860084651
:1016D0004068104908400E494860084600680E49B5
:1016E00008400B4908600846006820F48020086024
:1016F0000846406820F4FE0048604FF41F008860F0
:10170000FFF765FF4FF000600449086010BD00005E
:10171000001002400000FFF8FFFFF6FE08ED00E0B9
:10172000F0B50C46154600220021068C4FF6FE77D8
:101730003E400684028B018C4FF60C7632407E1CB4
:1017400006EA03162E433243104EB0420ED0104E1E
:10175000B0420BD0B0F1804F08D00E4EB04205D051
:101760000D4EB04202D00D4EB04206D14FF6FD767E
:10177000314044F00106314305E04FF6F576314043
:1017800044F00106314302830184F0BD002C014086
:10179000003401400004004000080040000C0040FC
:1017A000F0B50C461546002200210026078C4FF6A6
:1017B000EF7C07EA0C070784028B018C4FF6FF775A
:1017C00007EA041640F6FF473A404FF6FF7707EA6C
:1017D00003373A434FF6FF7707EA05273A43114F9D
:1017E000B8420ED0104FB8420BD0B0F1804F08D0A5
:1017F0000E4FB84205D00E4FB84202D00D4FB8423E
:1018000006D14FF6DF77394046F01007394305E03F
:101810004FF65F77394044F0100739430283018463
:10182000F0BD0000002C01400034014000040040E5
:1018300000080040000C0040F0B50C4615460022A0
:1018400000210026078C4FF6FF6C07EA0C0707847F
:10185000828B018C4FF6FF7707EA04264FF60C7750
:101860003A404FF6FF7707EA03172F433A43114FE9
:10187000B8420ED0104FB8420BD0B0F1804F08D014
:101880000E4FB84205D00E4FB84202D00D4FB842AD
:1018900006D14FF6FF57394046F48077394305E0CB
:1018A0004FF2FF57394044F48077394382830184F3
:1018B000F0BD0000002C0140003401400004004055
:1018C00000080040000C0040F0B50C461546002210
:1018D00000210026078C4EF6FF7C07EA0C070784E0
:1018E000828B018C4FF6FF7707EA043640F6FF47FC
:1018F0003A404FF6FF7707EA05273A434FF6FF775E
:1019000007EA03373A43114FB8420ED0104FB8429E
:101910000BD0B0F1804F08D00E4FB84205D00E4F1B
:10192000B84202D00D4FB84206D14DF6FF7739408C
:1019300046F48057394305E047F6FF57394044F4F1
:101940008057394382830184F0BD0000002C0140A0
:10195000003401400004004000080040000C00403A
:1019600000B587B001210420FFF776FD012108466C
:10197000FFF734FD0320ADF80C0004208DF80F00B4
:1019800003A91948FEF7B8FD04A801F0C5FB4FF6FE
:10199000FE70ADF814000020ADF81000ADF8160090
:1019A000ADF8120004A94FF0804001F0E5FA0023E1
:1019B0001A4603214FF0804000F094FB684600F087
:1019C0000DFE0A20ADF808006946400700F0B2FCA1
:1019D00000214FF0804001F0D1F80121880700F08C
:1019E000F9FA07B000BD00000008014008B5012168
:1019F0000820FFF731FD18208DF8030003208DF833
:101A00000200ADF8000069460148FEF775FD08BD0B
:101A1000000C014030B587B005460C46012102207C
:101A2000FFF7DCFC6320ADF814004820ADF810008F
:101A30000020ADF81600ADF8120004A9164801F018
:101A40009BFA6020ADF800000120ADF80200ADF86F
:101A500006500020ADF8080069460F4800F058FE17
:101A600008210D4800F03CFF0120ADF80200ADF860
:101A700006406946084800F07FFF0821064801F04B
:101A80002DF80121044800F01DF90121024800F061
:101A9000A1FA07B030BD00000004004010B5FFF708
:101AA000A5FF00210846FFF7B5FF10BD70B504463D
:101AB0000E4615461648844217D0B4F1804F14D014
:101AC0001448844211D0144884420ED013488442F2
:101AD0000BD01348844208D01248844205D01248E3
:101AE000844202D01148844200D103E0492110A071
:101AF00001F06EFE032E02D0042E05D101E0A58771
:101B000003E0A4F8405000E000BF00BF70BD00003B
:101B1000002C01400004004000080040000C004080
:101B200000340140004C01400018004000400140DA
:101B30002E2E5C2E2E5C4273705C6273705F73722B
:101B4000635C6273705F70776D5F6F7574707574CE
:101B50002E6300003EB5044601211020FFF73EFC35
:101B60004FF47A70604380B2ADF804004720ADF8BE
:101B700000000020ADF80600ADF802008DF8080066
:101B80006946084801F0F8F90121064800F022F9F9
:101B900001221146034800F02BFD0121014800F00D
:101BA00019FA3EBD0010004010B50121124800F0A6
:101BB00025FB00B30121104800F08CF90F480068A4
:101BC000401C0E49086008460068C821B0FBF1F2CD
:101BD00001FB120028B9002008490860012001F02B
:101BE0007DFE064800680A21B0FBF1F201FB1200FD
:101BF00008B901F037FF10BD001000409C00002024
:101C000008B536208DF8000000208DF801008DF811
:101C1000020001208DF803006846FFF7FFFA052057
:101C2000FFF798FF08BD00003EB5044601212020C3
:101C3000FFF7D4FB4FF47A70604380B2ADF8040034
:101C40004720ADF800000020ADF80600ADF8020016
:101C50008DF808006946084801F08EF90121064810
:101C600000F0B8F801221146034800F0C1FC012140
:101C7000014800F0AFF93EBD0014004010B501214D
:101C8000054800F0BBFA28B1FEF780FF01210248A9
:101C900000F020F910BD00000014004008B5372006
:101CA0008DF8000001208DF8010000208DF8020061
:101CB00001208DF803006846FFF7B0FA0320FFF714
:101CC000B3FF08BD70B504460D46274884422FD0A7
:101CD000B4F1804F2CD02548844229D02448844236
:101CE00026D02448844223D02348844220D023484D
:101CF00084421DD0224884421AD02248844217D000
:101D00002148844214D02148844211D02048844282
:101D10000ED0204884420BD01F48844208D01F4870
:101D2000844205D01E48844202D01E48844200D11D
:101D300004E040F284511CA001F04AFD0DB1012DD8
:101D400000D104E040F2855117A001F041FD25B11A
:101D5000208840F08000208004E020884FF67F71CA
:101D60000840208070BD0000002C014000040040AD
:101D700000080040000C004000100040001400402B
:101D800000340140004C014000500140005401402B
:101D900000180040001C00400020004000400140AE
:101DA00000440140004801402E2E5C2E2E5C4C6900
:101DB000627261726965735C46576C69625C7372CA
:101DC000635C73746D3332663130785F74696D2E85
:101DD0006300000070B504460D46234884422FD0AE
:101DE000B4F1804F2CD02148844229D0204884422D
:101DF00026D02048844223D01F48844220D01F4848
:101E000084421DD01E4884421AD01E48844217D0F6
:101E10001D48844214D01D48844211D01C4884427D
:101E20000ED01C4884420BD01B48844208D01B486B
:101E3000844205D01A48844202D01A48844200D114
:101E400004E040F62B2118A001F0C2FC05F461402B
:101E500008B905B104E040F62C2113A001F0B8FC4C
:101E6000E843208270BD0000002C014000040040C7
:101E700000080040000C004000100040001400402A
:101E800000340140004C014000500140005401402A
:101E900000180040001C00400020004000400140AD
:101EA00000440140004801402E2E5C2E2E5C4C69FF
:101EB000627261726965735C46576C69625C7372C9
:101EC000635C73746D3332663130785F74696D2E84
:101ED0006300000070B504460D46234884422FD0AD
:101EE000B4F1804F2CD02148844229D0204884422C
:101EF00026D02048844223D01F48844220D01F4847
:101F000084421DD01E4884421AD01E48844217D0F5
:101F10001D48844214D01D48844211D01C4884427C
:101F20000ED01C4884420BD01B48844208D01B486A
:101F3000844205D01A48844202D01A48844200D113
:101F400004E040F6772118A001F042FC05F47F4040
:101F500008B905B104E040F6782113A001F038FC7F
:101F6000E843208270BD0000002C014000040040C6
:101F700000080040000C0040001000400014004029
:101F800000340140004C0140005001400054014029
:101F900000180040001C00400020004000400140AC
:101FA00000440140004801402E2E5C2E2E5C4C69FE
:101FB000627261726965735C46576C69625C7372C8
:101FC000635C73746D3332663130785F74696D2E83
:101FD0006300000070B504460D46274884422FD0A8
:101FE000B4F1804F2CD02548844229D02448844223
:101FF00026D02448844223D02348844220D023483A
:1020000084421DD0224884421AD02248844217D0EC
:102010002148844214D02148844211D0204884426F
:102020000ED0204884420BD01F48844208D01F485D
:10203000844205D01E48844202D01E48844200D10A
:1020400004E040F229311CA001F0C2FB0DB1012DCA
:1020500000D104E040F22A3117A001F0B9FB25B10C
:10206000208840F00100208004E020884FF6FE71B7
:102070000840208070BD0000002C0140000400409A
:1020800000080040000C0040001000400014004018
:1020900000340140004C0140005001400054014018
:1020A00000180040001C004000200040004001409B
:1020B00000440140004801402E2E5C2E2E5C4C69ED
:1020C000627261726965735C46576C69625C7372B7
:1020D000635C73746D3332663130785F74696D2E72
:1020E000630000002DE9F04704460D4616461F46E2
:1020F0004FF00008C146C2462F48844211D0B4F1C7
:10210000804F0ED02D4884420BD02D48844208D0F9
:102110002C48844205D02C48844202D02B4884426B
:1021200000D104E04FF49F6129A001F051FB012D83
:1021300003D0022D01D0032D00D104E040F2F9417B
:1021400023A001F045FB0EB1022E00D104E040F2C5
:10215000FA411FA001F03CFB0FB1022F00D104E0B7
:1021600040F2FB411AA001F033FBB4F80880B4F848
:102170001890B4F820A04FF6F87008EA000848EA72
:1021800005084FF6FC4009EA000940F2011049EA4F
:1021900000094FF6DD700AEA000A4FF6FF7000EA08
:1021A0000710304340EA0A0AA4F80880A4F81890FF
:1021B000A4F820A0BDE8F087002C014000040040F6
:1021C00000080040000C0040003401400040014085
:1021D0002E2E5C2E2E5C4C69627261726965735C96
:1021E00046576C69625C7372635C73746D333266FC
:1021F0003130785F74696D2E630000002DE9F04185
:1022000004460D4600260027B0462F4884422FD0B2
:10221000B4F1804F2CD02D48844229D02C488442E0
:1022200026D02C48844223D02B48844220D02B48EF
:1022300084421DD02A4884421AD02A48844217D0AA
:102240002948844214D02948844211D02848844225
:102250000ED0284884420BD02748844208D0274813
:10226000844205D02648844202D02648844200D1C8
:1022700004E040F64D2124A001F0AAFA012D0DD072
:10228000022D0BD0042D09D0082D07D0102D05D01C
:10229000202D03D0402D01D0802D00D104E040F648
:1022A0004E2119A001F094FA208A00EA0507A089BE
:1022B00000EA050827B1B8F1000F01D0012600E0BF
:1022C00000263046BDE8F081002C014000040040AB
:1022D00000080040000C00400010004000140040C6
:1022E00000340140004C01400050014000540140C6
:1022F00000180040001C0040002000400040014049
:1023000000440140004801402E2E5C2E2E5C4C699A
:10231000627261726965735C46576C69625C737264
:10232000635C73746D3332663130785F74696D2E1F
:102330006300000070B504460D46288840B1288827
:10234000042805D02888082802D028880C2800D125
:1023500004E040F24E2188A001F03AFAA888012852
:1023600005D0A888022802D0A888032800D104E05C
:1023700040F24F2180A001F02BFAE88840B1E888B4
:10238000042805D0E888082802D0E8880C2800D165
:1023900004E04FF4147178A001F01AFA28890F288C
:1023A00000DC04E040F2512173A001F011FA7D48F5
:1023B00084420ED07C4884420BD0B4F1804F08D0C8
:1023C0007A48844205D07A48844202D079488442CF
:1023D0000BD1688810B16888022800D113E040F260
:1023E000562165A001F0F4F90DE0688828B16888ED
:1023F000022802D068880A2800D104E040F25A215D
:102400005DA001F0E5F92888E8BB6648844229D040
:10241000B4F1804F26D06548844223D0644884427A
:1024200020D0644884421DD05F4884421AD062485C
:10243000844217D06148844214D06148844211D04C
:10244000604884420ED0604884420BD05F4884428A
:1024500008D05F48844205D05E48844202D05E487E
:10246000844200D104E040F25E2143A001F0B0F9C3
:102470002B89AA8869882046FFF752F9E988204607
:1024800000F0F0FB77E0FFE7288804282BD14548CF
:10249000844217D0B4F1804F14D04448844211D004
:1024A000434884420ED0434884420BD03E48844285
:1024B00008D04148844205D04248844202D0444872
:1024C000844200D104E04FF41A712BA001F080F98E
:1024D0002B89AA8869882046FFF762F9E988204697
:1024E00000F03EFC47E02888082822D12D4884428D
:1024F0000ED0B4F1804F0BD02C48844208D02C4829
:10250000844205D02B48844202D02748844200D11F
:1025100004E040F2722118A001F05AF92B89AA8830
:1025200069882046FFF788F9E988204600F07CFC9E
:1025300021E01C4884420ED0B4F1804F0BD01B48E0
:10254000844208D01A48844205D01A48844202D0F6
:102550001548844200D104E04FF41F7106A001F039
:1025600037F92B89AA8869882046FFF7ADF9E988F1
:10257000204600F0ABFC70BD2E2E5C2E2E5C4C690C
:10258000627261726965735C46576C69625C7372F2
:10259000635C73746D3332663130785F74696D2EAD
:1025A00063000000002C01400034014000040040A2
:1025B00000080040000C0040004C01400050014069
:1025C0000054014000180040001C00400020004062
:1025D00000400140004401400048014000210180CA
:1025E0004180012181800021C1800181704700006C
:1025F00070B504460D4616462A4884422FD0B4F1E1
:10260000804F2CD02848844229D02848844226D0A4
:102610002748844223D02748844220D02648844239
:102620001DD0264884421AD02548844217D0254818
:10263000844214D02448844211D0244884420ED0CD
:10264000234884420BD02348844208D02248844245
:1026500005D02248844202D02148844200D104E0BF
:1026600040F26B311FA001F0B3F805F47F4008B9C8
:1026700005B104E04FF45B711AA001F0A9F80EB1A6
:10268000012E00D104E040F26D3116A001F0A0F857
:102690001EB1A0892843A08102E0A089A843A0819F
:1026A00070BD0000002C0140000400400008004004
:1026B000000C0040001000400014004000340140B5
:1026C000004C0140005001400054014000180040FF
:1026D000001C004000200040004001400044014038
:1026E000004801402E2E5C2E2E5C4C696272617295
:1026F0006965735C46576C69625C7372635C737482
:102700006D3332663130785F74696D2E630000007E
:102710002DE9F04105460C464FF000080026002741
:102720005F4885420ED0B5F1804F0BD05D488542A1
:1027300008D05D48854205D05C48854202D05C489F
:10274000854200D104E040F2C1115AA001F040F8E6
:10275000208870B1208810280BD02088202808D02D
:102760002088302805D02088602802D02088702852
:1027700000D104E04FF4E1714EA001F029F8608827
:1027800010B16088012800D104E040F2C31149A0D3
:1027900001F01EF8208910B12089022800D104E040
:1027A0004FF4E27143A001F013F8288C4FF6FF615B
:1027B000084028842E8CAF88B5F81C804FF68F70A7
:1027C00008EA00084FF6FC7008EA0008208840EA92
:1027D00008084FF6FF50064020894FF6FF7101EAC6
:1027E00000200643608801EA002006432C48854209
:1027F00002D02F4885424BD1A08810B1A088042870
:1028000000D104E04FF4F0712AA000F0E1FF6089EC
:1028100010B16089082800D104E040F2E11125A040
:1028200000F0D6FFE089B0F5007F01D0E08900B963
:1028300004E04FF4F1711FA000F0CAFFA089B0F5C9
:10284000807F01D0A08900B904E040F2E31119A013
:1028500000F0BEFF4FF2FF70064060894FF6FF7137
:1028600001EA002006434FF6FF300640A08801EA47
:10287000002006434EF6FF7007404DF6FF700740FC
:10288000A08901EA00100743E08901EA001007432C
:10289000AF80A5F81C80E088A8872E84BDE8F08171
:1028A000002C01400004004000080040000C0040E3
:1028B000003401402E2E5C2E2E5C4C6962726172D7
:1028C0006965735C46576C69625C7372635C7374B0
:1028D0006D3332663130785F74696D2E63000000AD
:1028E00070B504460D460026134884420ED0B4F15C
:1028F000804F0BD01148844208D01148844205D043
:102900001048844202D01048844200D104E040F2D2
:102910001A610EA000F05CFF082D00D005B904E09C
:1029200040F21B6109A000F053FFA68B4FF6F77031
:1029300006402E43A68370BD002C014000040040D9
:1029400000080040000C0040003401402E2E5C2E98
:102950002E5C4C69627261726965735C46576C6982
:10296000625C7372635C73746D3332663130785FAE
:1029700074696D2E630000002DE9F04104460D4698
:1029800000270026B046454884420ED0B4F1804F5F
:102990000BD04348844208D04248844205D0424884
:1029A000844202D04148844200D104E04FF40471D3
:1029B0003FA000F00DFF288870B1288810280BD0A8
:1029C0002888202808D02888302805D02888602822
:1029D00002D02888702800D104E040F2112134A0F0
:1029E00000F0F6FE688810B16888012800D104E084
:1029F00040F212212EA000F0EBFE288910B12889A8
:102A0000022800D104E040F2132129A000F0E0FEEA
:102A1000208C4EF6FF7108402084268CB4F8048088
:102A2000A78B48F6FF7007404FF6FF400740288805
:102A30004FF6FF7101EA002007434DF6FF70064094
:102A4000288901EA00300643688801EA003006431D
:102A50001248844202D01548844216D1A889B0F5A4
:102A6000807F01D0A88900B904E04FF40C7110A058
:102A700000F0AEFE4BF6FF7008EA0008A8894FF69A
:102A8000FF7101EA801040EA0808A4F80480A783D7
:102A9000E888A4F840002684BDE8F081002C0140BD
:102AA0000004004000080040000C004000340140D9
:102AB0002E2E5C2E2E5C4C69627261726965735CAD
:102AC00046576C69625C7372635C73746D33326613
:102AD0003130785F74696D2E6300000070B5044674
:102AE0000D460026154884420ED0B4F1804F0BD01D
:102AF0001348844208D01348844205D012488442C7
:102B000002D01248844200D104E040F2326110A0A9
:102B100000F05EFE082D00D005B904E040F23361FC
:102B20000BA000F055FEA68B4FF2FF7006404FF64B
:102B3000FF7000EA05200643A68370BD002C01400B
:102B40000004004000080040000C00400034014038
:102B50002E2E5C2E2E5C4C69627261726965735C0C
:102B600046576C69625C7372635C73746D33326672
:102B70003130785F74696D2E6300000070B50446D3
:102B80000D461D4884422FD0B4F1804F2CD01B48F5
:102B9000844229D01A48844226D01A48844223D03D
:102BA0001948844220D0194884421DD018488442D4
:102BB0001AD01848844217D01748844214D01748B6
:102BC000844211D0164884420ED0164884420BD05D
:102BD0001548844208D01548844205D014488442E0
:102BE00002D01448844200D104E040F6DB0112A078
:102BF00000F0EEFDA58470BD002C014000040040F3
:102C000000080040000C004000100040001400408C
:102C100000340140004C014000500140005401408C
:102C200000180040001C004000200040004001400F
:102C300000440140004801402E2E5C2E2E5C4C6961
:102C4000627261726965735C46576C69625C73722B
:102C5000635C73746D3332663130785F74696D2EE6
:102C60006300000070B504460D462448844229D014
:102C7000B4F1804F26D02248844223D02148844298
:102C800020D0214884421DD0204884421AD02048B8
:102C9000844217D01F48844214D01F48844211D068
:102CA0001E4884420ED01E4884420BD01D488442E8
:102CB00008D01D48844205D01C48844202D01C48DC
:102CC000844200D104E040F634111AA000F080FDE7
:102CD0002DB1042D03D0082D01D00C2D00D104E01E
:102CE00040F6351113A000F073FD208B4FF6F37101
:102CF00008402083208B2843208370BD002C014096
:102D00000004004000080040000C00400034014076
:102D1000004C0140005001400054014000180040A8
:102D2000001C0040002000400040014000440140E1
:102D3000004801402E2E5C2E2E5C4C69627261723E
:102D40006965735C46576C69625C7372635C73742B
:102D50006D3332663130785F74696D2E6300000028
:102D600070B504460D461D48844217D0B4F1804F1B
:102D700014D01B48844211D01A4884420ED01A48FD
:102D800084420BD01948844208D01948844205D0A7
:102D90001848844202D01848844200D104E040F62A
:102DA0004A1116A000F014FD2DB1042D03D0082DFA
:102DB00001D00C2D00D104E040F64B110FA000F023
:102DC00007FD208B4FF2FF3108402083208B4FF608
:102DD000FF7101EA05210843208370BD002C0140EA
:102DE0000004004000080040000C00400034014096
:102DF000004C014000180040004001402E2E5C2E87
:102E00002E5C4C69627261726965735C46576C69CD
:102E1000625C7372635C73746D3332663130785FF9
:102E200074696D2E6300000070B504460D461748A6
:102E300084420ED0B4F1804F0BD01548844208D0A4
:102E40001448844205D01448844202D01348844276
:102E500000D104E04FF4166111A000F0B9FC2DB1CF
:102E6000042D03D0082D01D00C2D00D104E040F634
:102E700061110BA000F0ACFCA08B4FF6F371084081
:102E8000A083A08B2843A08370BD0000002C0140CC
:102E90000004004000080040000C004000340140E5
:102EA0002E2E5C2E2E5C4C69627261726965735CB9
:102EB00046576C69625C7372635C73746D3332661F
:102EC0003130785F74696D2E6300000070B5044680
:102ED0000D46194884420ED0B4F1804F0BD01748EC
:102EE000844208D01648844205D01648844202D055
:102EF0001548844200D104E040F6761113A000F09A
:102F000067FC2DB1042D03D0082D01D00C2D00D16C
:102F100004E040F677110DA000F05AFCA08B4FF2B0
:102F2000FF310840A083A08B4FF6FF7101EA052115
:102F30000843A08370BD0000002C01400004004045
:102F400000080040000C0040003401402E2E5C2E92
:102F50002E5C4C69627261726965735C46576C697C
:102F6000625C7372635C73746D3332663130785FA8
:102F700074696D2E6300000070B504460D4600268E
:102F80004A4884422FD0B4F1804F2CD04848844224
:102F900029D04848844226D04748844223D0474815
:102FA000844220D0464884421DD0464884421AD0EC
:102FB0004548844217D04548844214D0444884424E
:102FC00011D0444884420ED0434884420BD0434839
:102FD000844208D04248844205D04248844202D00C
:102FE0004148844200D103E0E72140A000F0F0FB1B
:102FF000688858B16888102808D06888202805D0CB
:103000006888402802D06888602800D103E0E82161
:1030100036A000F0DDFBE88838B1E888B0F5807FA5
:1030200003D0E888B0F5007F00D103E0E9212FA0AC
:1030300000F0CEFB26881D4884420ED021488442F1
:103040000BD0B4F1804F08D01948844205D01948FC
:10305000844202D01848844204D14FF68F70064053
:10306000688806431548844207D01548844204D036
:103070004FF6FF400640E88806432680A888A085D2
:1030800028882085094884420BD00E48844208D005
:103090001348844205D01348844202D01248844227
:1030A00001D1287A20860120A08270BD002C014029
:1030B0000004004000080040000C004000100040E8
:1030C0000014004000340140004C01400050014019
:1030D0000054014000180040001C00400020004047
:1030E0000040014000440140004801402E2E5C2E6B
:1030F0002E5C4C69627261726965735C46576C69DB
:10310000625C7372635C73746D3332663130785F06
:1031100074696D2E630000004FF6FF7181800021FD
:103120000180C1804180017270470000044800683E
:1031300020B103480068401E014908607047000044
:103140003000002010B586B0044601210420FEF7AF
:1031500083F901218803FEF77FF94FF40070ADF881
:10316000140018208DF8170003208DF8160005A90B
:103170001248FDF7C1F94FF48060ADF81400042047
:103180008DF8170005A90D48FDF7B6F90194002048
:10319000ADF80800ADF80A00ADF80C00ADF810006D
:1031A0000C20ADF80E0001A9054800F0C9F8012176
:1031B000034800F007F806B010BD00000008014009
:1031C0000038014070B504460D46154884420BD0C6
:1031D0001448844208D01448844205D013488442DD
:1031E00002D01348844200D104E04FF4B17111A021
:1031F00000F0EEFA0DB1012D00D104E040F26311B0
:103200000CA000F0E5FA25B1A08940F40050A0819F
:1032100004E0A0894DF6FF710840A08170BD000058
:10322000003801400044004000480040004C00408D
:10323000005000402E2E5C2E2E5C4C696272617232
:103240006965735C46576C69625C7372635C737426
:103250006D3332663130785F75736172742E63003E
:1032600070B505460C460026254885420BD02548FA
:10327000854208D02448854205D02448854202D0A2
:103280002348854200D104E040F26E3121A000F0D5
:103290009FFA012C13D0802C11D0402C0FD0202C61
:1032A0000DD0102C0BD0B4F5807F08D0B4F5007F82
:1032B00005D0082C03D0042C01D0022C00D104E04E
:1032C00040F26F3113A000F083FAB4F5007F0ED105
:1032D0000B48854205D00B48854202D00A488542FA
:1032E00000D104E040F273310AA000F071FA28889E
:1032F000204008B1012600E00026304670BD0000E5
:10330000003801400044004000480040004C0040AC
:10331000005000402E2E5C2E2E5C4C696272617251
:103320006965735C46576C69625C7372635C737445
:103330006D3332663130785F75736172742E63005D
:103340002DE9F04786B005460C460026B24600BF80
:10335000B14600276B4885420BD06B48854208D0A8
:103360006A48854205D06A48854202D0694885424C
:1033700000D103E0B82168A000F02AFA206820B14B
:1033800070492068884200D203E0B92162A000F0B1
:103390001FFAA08818B1A088B0F5805F00D103E0C3
:1033A000BA215DA000F014FAE08858B1E088B0F5C9
:1033B000805F07D0E088B0F5005F03D0E088B0F50B
:1033C000405F00D103E0BB2153A000F001FA208947
:1033D00038B12089B0F5806F03D02089B0F5C06F77
:1033E00000D103E0BC214CA000F0F2F960894FF657
:1033F000F371084010B9608900B103E0BD2146A017
:1034000000F0E6F9A08958B1A089B0F5807F07D017
:10341000A089B0F5007F03D0A089B0F5407F00D12E
:1034200003E0BE213CA000F0D3F9A08968B1354883
:10343000854205D03448854202D03448854200D1C7
:1034400003E0C22134A000F0C3F92F462E8A4CF6C7
:10345000FF700640E08806432E82AE894EF6F310D8
:103460000640A08821890843618908430643AE814C
:10347000AE8A4FF6FF400640A0890643AE8201A8FF
:10348000FEF728F81F48874202D1DDF810A001E0BE
:10349000DDF80CA0A88900F4004040B10AEBCA0096
:1034A00000EB0A1021684900B0FBF1F807E00AEBD5
:1034B000CA0000EB0A1021688900B0FBF1F8642013
:1034C000B8FBF0F006013009642101FB1089A889DE
:1034D00000F4004040B1322000EBC900B0FBF1F035
:1034E00000F00700064308E0322000EB09106421D9
:1034F000B0FBF1F000F00F0006432E8106B0BDE8EE
:10350000F0870000003801400044004000480040BF
:10351000004C0040005000402E2E5C2E2E5C4C696A
:10352000627261726965735C46576C69625C737242
:10353000635C73746D3332663130785F75736172BA
:10354000742E630021AA440070B504460D4611484C
:1035500084420BD01048844208D01048844205D0E1
:103560000F48844202D00F48844200D104E040F268
:1035700053210DA000F02CF9B5F5007F00DA04E02E
:103580004FF4157108A000F023F9C5F30800A080DE
:1035900070BD000000380140004400400048004079
:1035A000004C0040005000402E2E5C2E2E5C4C69DA
:1035B000627261726965735C46576C69625C7372B2
:1035C000635C73746D3332663130785F757361722A
:1035D000742E630000BFFEE70FB4054B10B503A9BE
:1035E000044A029800F018F810BC5DF814FB0000C3
:1035F00091380008A000002002E008C8121F08C18E
:10360000002AFAD170477047002001E001C1121F63
:10361000002AFBD1704700002DE9FF4F8BB09A467E
:103620000F460546002606E025280BD052460D9988
:1036300090476D1C761C28780028F5D10FB03046D5
:10364000BDE8F08F0024A0460122604900E0044359
:1036500015F8013F203B02FA03F00842F7D1287821
:103660002E2817D115F8010F44F004042A280ED093
:103670006FF02F022878A0F1300109290AD808EB51
:10368000880102EB410100EB01086D1CF2E757F8DD
:10369000048B6D1C287869283ED006DC0028CDD02C
:1036A00063280BD0642804D136E0732810D0752825
:1036B0004BD052460D999047761C85E017F8040BC5
:1036C0008DF8000000208DF80100E946012003E09C
:1036D00057F8049B4FF0FF3061074FF0000401D40E
:1036E0000AE0641C44450DDA8442FADB19F8041040
:1036F0000029F6D106E0641C8442FCDB19F80410B2
:103700000029F8D1264404E019F8010B52460D991E
:103710009047641EF8D257E001CF4FF00A0B002803
:1037200002DA40422D2102E0210504D52B218DF83B
:103730002410012103E0E10705D02021F7E70DF176
:10374000200908910CE00021F9E701CF4FF00A0BA6
:10375000F9E75946FCF7DEFD01F1300209F8012DC9
:103760000028F6D1ADEB090000F1200B600701D471
:103770004FF00108D84502DDA8EB0B0000E0002067
:103780008046002406E009A85246005D0D99904746
:10379000641C761C08988442F5DB04E03020524615
:1037A0000D999047761CB8F10001A8F10108F5DCED
:1037B00005E019F8010B52460D999047761CBBF1B4
:1037C0000001ABF1010BF4DC6D1C34E709280100AA
:1037D00004460D4604E02A46214602A0FFF7FCFEFF
:1037E000F9E7000057726F6E6720706172616D6556
:1037F000746572732076616C75653A2066696C65D4
:10380000202573206F6E206C696E652025640D0A7B
:103810000000000030B51A4800681A4AB0FBF2F107
:10382000B1F1807F01D301201DE021F07F40401ED7
:103830004FF0E022506150170F22002807DA1307DB
:103840001D0E114B00F00F04241F1D5503E013073C
:103850001C0E0E4B1C5400BF00204FF0E022906164
:1038600007201061002008B100BFFEE74FF0E02004
:10387000006920F001004FF0E021086130BD000038
:103880000000002040420F0018ED00E000E400E0DE
:1038900070B504460D46E1B20548FFF755FE00BF7E
:1038A00040210348FFF7DCFC0028F9D0204670BD1A
:1038B0000038014010B5FFF7ADFFFDF703FAFDF743
:1038C00031FAFDF7EBF9FDF783FC4FF4E130FFF738
:1038D00039FCFEF7E3F8FEF743F810BD042822DABE
:1038E00030B91C49096881F040011A4A116030E082
:1038F000012806D11749096881F08001154A116035
:1039000027E0022806D11349096881F48071114A21
:1039100011601EE003281CD10E49096881F4007172
:103920000C4A116015E004200A49096881F0400141
:10393000084A11601146096881F080011160114642
:10394000096881F4807111601146096881F4007181
:10395000116070470C0C0140FFF7ACFF0E4800F0FF
:103960002BF8012080F3108800BFFDF71EFE002019
:1039700080F3108800BF09A0FFF72EFE00BF0D4A9C
:10398000B2F90C10B2F90A00FDF7CEF8FDF7E0FA33
:10399000FDF768F8F3E70000FEFF0F003D3D3D3DF9
:1039A0003D3D3D3D6D61696E3D3D3D3D3D3D3D3D96
:1039B0000A0000003C00002001B502E00098401E13
:1039C000009000980028F9D108BD00002DE9F041D1
:1039D0000446002C0ADDA2B203210F48FEF766F868
:1039E000002204210C48FEF761F812E000220321B6
:1039F0000948FEF75BF82046FCF749FC21F000413E
:103A00000646FCF76EFC85B22A4604210248FEF702
:103A10004DF8BDE8F081000000040040014664203C
:103A2000B1FBF0F00A22B0FBF2F302FB13003030DE
:103A30000B4A10700A20B1FBF0F00A22B0FBF2F33F
:103A400002FB13003030064A50700A20B1FBF0F23E
:103A500000FB12103030024A907010467047000090
:103A60008200002010B500244FF08040808C40423E
:103A700000B20C49888100214FF08040FFF77EF8AA
:103A80000848808928B10748B0F90C1006A0FFF754
:103A9000A3FD0448FDF75CFC04462046FFF796FFB3
:103AA00010BD00003C000020CAD5B5BD2025642013
:103AB000B8F670756C7365A3A10A0000DC3A0008C3
:103AC00000000020A4000000F8350008803B00083A
:103AD000A4000020140400000836000800A24A04D4
:103AE00000000000000000000102030406070809AE
:103AF0000000000001020304010203040607080994
:103B000002040608000000000000000000000000A1
:103B10000000000000000000060001000000F401A9
:103B20002003000000000000000000000000000072
:103B3000000000000000F0420000B44200002043FA
:103B4000000020430000E6420000D2420000B442E0
:103B50000000000000000000000000000000000065
:103B60000000000000000000000000000000000055
:103B70000000000000000000000000000000000045
:0400000508000131BD
:00000001FF
